{
  "_format": "hh-sol-artifact-1",
  "contractName": "MyERC1155",
  "sourceName": "contracts/MyERC1155.sol",
  "abi": [
    {
      "inputs": [],
      "stateMutability": "nonpayable",
      "type": "constructor"
    },
    {
      "anonymous": false,
      "inputs": [
        {
          "indexed": true,
          "internalType": "address",
          "name": "account",
          "type": "address"
        },
        {
          "indexed": true,
          "internalType": "address",
          "name": "operator",
          "type": "address"
        },
        {
          "indexed": false,
          "internalType": "bool",
          "name": "approved",
          "type": "bool"
        }
      ],
      "name": "ApprovalForAll",
      "type": "event"
    },
    {
      "anonymous": false,
      "inputs": [
        {
          "indexed": true,
          "internalType": "address",
          "name": "previousOwner",
          "type": "address"
        },
        {
          "indexed": true,
          "internalType": "address",
          "name": "newOwner",
          "type": "address"
        }
      ],
      "name": "OwnershipTransferred",
      "type": "event"
    },
    {
      "anonymous": false,
      "inputs": [
        {
          "indexed": true,
          "internalType": "address",
          "name": "operator",
          "type": "address"
        },
        {
          "indexed": true,
          "internalType": "address",
          "name": "from",
          "type": "address"
        },
        {
          "indexed": true,
          "internalType": "address",
          "name": "to",
          "type": "address"
        },
        {
          "indexed": false,
          "internalType": "uint256[]",
          "name": "ids",
          "type": "uint256[]"
        },
        {
          "indexed": false,
          "internalType": "uint256[]",
          "name": "values",
          "type": "uint256[]"
        }
      ],
      "name": "TransferBatch",
      "type": "event"
    },
    {
      "anonymous": false,
      "inputs": [
        {
          "indexed": true,
          "internalType": "address",
          "name": "operator",
          "type": "address"
        },
        {
          "indexed": true,
          "internalType": "address",
          "name": "from",
          "type": "address"
        },
        {
          "indexed": true,
          "internalType": "address",
          "name": "to",
          "type": "address"
        },
        {
          "indexed": false,
          "internalType": "uint256",
          "name": "id",
          "type": "uint256"
        },
        {
          "indexed": false,
          "internalType": "uint256",
          "name": "value",
          "type": "uint256"
        }
      ],
      "name": "TransferSingle",
      "type": "event"
    },
    {
      "anonymous": false,
      "inputs": [
        {
          "indexed": false,
          "internalType": "string",
          "name": "value",
          "type": "string"
        },
        {
          "indexed": true,
          "internalType": "uint256",
          "name": "id",
          "type": "uint256"
        }
      ],
      "name": "URI",
      "type": "event"
    },
    {
      "inputs": [
        {
          "internalType": "address",
          "name": "account",
          "type": "address"
        },
        {
          "internalType": "uint256",
          "name": "id",
          "type": "uint256"
        }
      ],
      "name": "balanceOf",
      "outputs": [
        {
          "internalType": "uint256",
          "name": "",
          "type": "uint256"
        }
      ],
      "stateMutability": "view",
      "type": "function"
    },
    {
      "inputs": [
        {
          "internalType": "address[]",
          "name": "accounts",
          "type": "address[]"
        },
        {
          "internalType": "uint256[]",
          "name": "ids",
          "type": "uint256[]"
        }
      ],
      "name": "balanceOfBatch",
      "outputs": [
        {
          "internalType": "uint256[]",
          "name": "",
          "type": "uint256[]"
        }
      ],
      "stateMutability": "view",
      "type": "function"
    },
    {
      "inputs": [
        {
          "internalType": "address",
          "name": "account",
          "type": "address"
        },
        {
          "internalType": "address",
          "name": "operator",
          "type": "address"
        }
      ],
      "name": "isApprovedForAll",
      "outputs": [
        {
          "internalType": "bool",
          "name": "",
          "type": "bool"
        }
      ],
      "stateMutability": "view",
      "type": "function"
    },
    {
      "inputs": [
        {
          "internalType": "address",
          "name": "account",
          "type": "address"
        },
        {
          "internalType": "uint256",
          "name": "amount",
          "type": "uint256"
        }
      ],
      "name": "mintToken",
      "outputs": [
        {
          "internalType": "uint256",
          "name": "",
          "type": "uint256"
        }
      ],
      "stateMutability": "nonpayable",
      "type": "function"
    },
    {
      "inputs": [],
      "name": "owner",
      "outputs": [
        {
          "internalType": "address",
          "name": "",
          "type": "address"
        }
      ],
      "stateMutability": "view",
      "type": "function"
    },
    {
      "inputs": [],
      "name": "renounceOwnership",
      "outputs": [],
      "stateMutability": "nonpayable",
      "type": "function"
    },
    {
      "inputs": [
        {
          "internalType": "address",
          "name": "from",
          "type": "address"
        },
        {
          "internalType": "address",
          "name": "to",
          "type": "address"
        },
        {
          "internalType": "uint256[]",
          "name": "ids",
          "type": "uint256[]"
        },
        {
          "internalType": "uint256[]",
          "name": "amounts",
          "type": "uint256[]"
        },
        {
          "internalType": "bytes",
          "name": "data",
          "type": "bytes"
        }
      ],
      "name": "safeBatchTransferFrom",
      "outputs": [],
      "stateMutability": "nonpayable",
      "type": "function"
    },
    {
      "inputs": [
        {
          "internalType": "address",
          "name": "from",
          "type": "address"
        },
        {
          "internalType": "address",
          "name": "to",
          "type": "address"
        },
        {
          "internalType": "uint256",
          "name": "id",
          "type": "uint256"
        },
        {
          "internalType": "uint256",
          "name": "amount",
          "type": "uint256"
        },
        {
          "internalType": "bytes",
          "name": "data",
          "type": "bytes"
        }
      ],
      "name": "safeTransferFrom",
      "outputs": [],
      "stateMutability": "nonpayable",
      "type": "function"
    },
    {
      "inputs": [
        {
          "internalType": "address",
          "name": "operator",
          "type": "address"
        },
        {
          "internalType": "bool",
          "name": "approved",
          "type": "bool"
        }
      ],
      "name": "setApprovalForAll",
      "outputs": [],
      "stateMutability": "nonpayable",
      "type": "function"
    },
    {
      "inputs": [
        {
          "internalType": "bytes4",
          "name": "interfaceId",
          "type": "bytes4"
        }
      ],
      "name": "supportsInterface",
      "outputs": [
        {
          "internalType": "bool",
          "name": "",
          "type": "bool"
        }
      ],
      "stateMutability": "view",
      "type": "function"
    },
    {
      "inputs": [
        {
          "internalType": "address",
          "name": "newOwner",
          "type": "address"
        }
      ],
      "name": "transferOwnership",
      "outputs": [],
      "stateMutability": "nonpayable",
      "type": "function"
    },
    {
      "inputs": [
        {
          "internalType": "uint256",
          "name": "",
          "type": "uint256"
        }
      ],
      "name": "uri",
      "outputs": [
        {
          "internalType": "string",
          "name": "",
          "type": "string"
        }
      ],
      "stateMutability": "view",
      "type": "function"
    }
  ],
  "bytecode": "0x60806040523480156200001157600080fd5b506040518060400160405280600381526020017f75726c000000000000000000000000000000000000000000000000000000000081525062000059816200008060201b60201c565b506200007a6200006e6200009c60201b60201c565b620000a460201b60201c565b6200027f565b8060029080519060200190620000989291906200016a565b5050565b600033905090565b6000600360009054906101000a900473ffffffffffffffffffffffffffffffffffffffff16905081600360006101000a81548173ffffffffffffffffffffffffffffffffffffffff021916908373ffffffffffffffffffffffffffffffffffffffff1602179055508173ffffffffffffffffffffffffffffffffffffffff168173ffffffffffffffffffffffffffffffffffffffff167f8be0079c531659141344cd1fd0a4f28419497f9722a3daafe3b4186f6b6457e060405160405180910390a35050565b82805462000178906200021a565b90600052602060002090601f0160209004810192826200019c5760008555620001e8565b82601f10620001b757805160ff1916838001178555620001e8565b82800160010185558215620001e8579182015b82811115620001e7578251825591602001919060010190620001ca565b5b509050620001f79190620001fb565b5090565b5b8082111562000216576000816000905550600101620001fc565b5090565b600060028204905060018216806200023357607f821691505b602082108114156200024a576200024962000250565b5b50919050565b7f4e487b7100000000000000000000000000000000000000000000000000000000600052602260045260246000fd5b612c86806200028f6000396000f3fe608060405234801561001057600080fd5b50600436106100b35760003560e01c806379c650681161007157806379c650681461019e5780638da5cb5b146101ce578063a22cb465146101ec578063e985e9c514610208578063f242432a14610238578063f2fde38b14610254576100b3565b8062fdd58e146100b857806301ffc9a7146100e85780630e89341c146101185780632eb2c2d6146101485780634e1273f414610164578063715018a614610194575b600080fd5b6100d260048036038101906100cd9190611d0a565b610270565b6040516100df91906123e8565b60405180910390f35b61010260048036038101906100fd9190611db2565b610339565b60405161010f919061222b565b60405180910390f35b610132600480360381019061012d9190611e04565b61041b565b60405161013f9190612246565b60405180910390f35b610162600480360381019061015d9190611b80565b6104af565b005b61017e60048036038101906101799190611d46565b610550565b60405161018b91906121d2565b60405180910390f35b61019c610701565b005b6101b860048036038101906101b39190611d0a565b610715565b6040516101c591906123e8565b60405180910390f35b6101d661075c565b6040516101e391906120f5565b60405180910390f35b61020660048036038101906102019190611cce565b610786565b005b610222600480360381019061021d9190611b44565b61079c565b60405161022f919061222b565b60405180910390f35b610252600480360381019061024d9190611c3f565b610830565b005b61026e60048036038101906102699190611b1b565b6108d1565b005b60008073ffffffffffffffffffffffffffffffffffffffff168373ffffffffffffffffffffffffffffffffffffffff1614156102e1576040517f08c379a00000000000000000000000000000000000000000000000000000000081526004016102d8906122a8565b60405180910390fd5b60008083815260200190815260200160002060008473ffffffffffffffffffffffffffffffffffffffff1673ffffffffffffffffffffffffffffffffffffffff16815260200190815260200160002054905092915050565b60007fd9b67a26000000000000000000000000000000000000000000000000000000007bffffffffffffffffffffffffffffffffffffffffffffffffffffffff1916827bffffffffffffffffffffffffffffffffffffffffffffffffffffffff1916148061040457507f0e89341c000000000000000000000000000000000000000000000000000000007bffffffffffffffffffffffffffffffffffffffffffffffffffffffff1916827bffffffffffffffffffffffffffffffffffffffffffffffffffffffff1916145b80610414575061041382610955565b5b9050919050565b60606002805461042a90612657565b80601f016020809104026020016040519081016040528092919081815260200182805461045690612657565b80156104a35780601f10610478576101008083540402835291602001916104a3565b820191906000526020600020905b81548152906001019060200180831161048657829003601f168201915b50505050509050919050565b6104b76109bf565b73ffffffffffffffffffffffffffffffffffffffff168573ffffffffffffffffffffffffffffffffffffffff1614806104fd57506104fc856104f76109bf565b61079c565b5b61053c576040517f08c379a0000000000000000000000000000000000000000000000000000000008152600401610533906122c8565b60405180910390fd5b61054985858585856109c7565b5050505050565b60608151835114610596576040517f08c379a000000000000000000000000000000000000000000000000000000000815260040161058d90612368565b60405180910390fd5b6000835167ffffffffffffffff8111156105d9577f4e487b7100000000000000000000000000000000000000000000000000000000600052604160045260246000fd5b6040519080825280602002602001820160405280156106075781602001602082028036833780820191505090505b50905060005b84518110156106f6576106a0858281518110610652577f4e487b7100000000000000000000000000000000000000000000000000000000600052603260045260246000fd5b6020026020010151858381518110610693577f4e487b7100000000000000000000000000000000000000000000000000000000600052603260045260246000fd5b6020026020010151610270565b8282815181106106d9577f4e487b7100000000000000000000000000000000000000000000000000000000600052603260045260246000fd5b602002602001018181525050806106ef906126ba565b905061060d565b508091505092915050565b610709610d35565b6107136000610db3565b565b600061071f610d35565b6107296004610e79565b60006107356004610e8f565b905061075284828560405180602001604052806000815250610e9d565b8091505092915050565b6000600360009054906101000a900473ffffffffffffffffffffffffffffffffffffffff16905090565b6107986107916109bf565b838361104e565b5050565b6000600160008473ffffffffffffffffffffffffffffffffffffffff1673ffffffffffffffffffffffffffffffffffffffff16815260200190815260200160002060008373ffffffffffffffffffffffffffffffffffffffff1673ffffffffffffffffffffffffffffffffffffffff16815260200190815260200160002060009054906101000a900460ff16905092915050565b6108386109bf565b73ffffffffffffffffffffffffffffffffffffffff168573ffffffffffffffffffffffffffffffffffffffff16148061087e575061087d856108786109bf565b61079c565b5b6108bd576040517f08c379a00000000000000000000000000000000000000000000000000000000081526004016108b4906122c8565b60405180910390fd5b6108ca85858585856111bb565b5050505050565b6108d9610d35565b600073ffffffffffffffffffffffffffffffffffffffff168173ffffffffffffffffffffffffffffffffffffffff161415610949576040517f08c379a000000000000000000000000000000000000000000000000000000000815260040161094090612288565b60405180910390fd5b61095281610db3565b50565b60007f01ffc9a7000000000000000000000000000000000000000000000000000000007bffffffffffffffffffffffffffffffffffffffffffffffffffffffff1916827bffffffffffffffffffffffffffffffffffffffffffffffffffffffff1916149050919050565b600033905090565b8151835114610a0b576040517f08c379a0000000000000000000000000000000000000000000000000000000008152600401610a0290612388565b60405180910390fd5b600073ffffffffffffffffffffffffffffffffffffffff168473ffffffffffffffffffffffffffffffffffffffff161415610a7b576040517f08c379a0000000000000000000000000000000000000000000000000000000008152600401610a72906122e8565b60405180910390fd5b6000610a856109bf565b9050610a95818787878787611457565b60005b8451811015610c92576000858281518110610adc577f4e487b7100000000000000000000000000000000000000000000000000000000600052603260045260246000fd5b602002602001015190506000858381518110610b21577f4e487b7100000000000000000000000000000000000000000000000000000000600052603260045260246000fd5b60200260200101519050600080600084815260200190815260200160002060008b73ffffffffffffffffffffffffffffffffffffffff1673ffffffffffffffffffffffffffffffffffffffff16815260200190815260200160002054905081811015610bc2576040517f08c379a0000000000000000000000000000000000000000000000000000000008152600401610bb990612308565b60405180910390fd5b81810360008085815260200190815260200160002060008c73ffffffffffffffffffffffffffffffffffffffff1673ffffffffffffffffffffffffffffffffffffffff168152602001908152602001600020819055508160008085815260200190815260200160002060008b73ffffffffffffffffffffffffffffffffffffffff1673ffffffffffffffffffffffffffffffffffffffff1681526020019081526020016000206000828254610c77919061254b565b9250508190555050505080610c8b906126ba565b9050610a98565b508473ffffffffffffffffffffffffffffffffffffffff168673ffffffffffffffffffffffffffffffffffffffff168273ffffffffffffffffffffffffffffffffffffffff167f4a39dc06d4c0dbc64b70af90fd698a233a518aa5d07e595d983b8c0526c8f7fb8787604051610d099291906121f4565b60405180910390a4610d1f81878787878761145f565b610d2d818787878787611467565b505050505050565b610d3d6109bf565b73ffffffffffffffffffffffffffffffffffffffff16610d5b61075c565b73ffffffffffffffffffffffffffffffffffffffff1614610db1576040517f08c379a0000000000000000000000000000000000000000000000000000000008152600401610da890612328565b60405180910390fd5b565b6000600360009054906101000a900473ffffffffffffffffffffffffffffffffffffffff16905081600360006101000a81548173ffffffffffffffffffffffffffffffffffffffff021916908373ffffffffffffffffffffffffffffffffffffffff1602179055508173ffffffffffffffffffffffffffffffffffffffff168173ffffffffffffffffffffffffffffffffffffffff167f8be0079c531659141344cd1fd0a4f28419497f9722a3daafe3b4186f6b6457e060405160405180910390a35050565b6001816000016000828254019250508190555050565b600081600001549050919050565b600073ffffffffffffffffffffffffffffffffffffffff168473ffffffffffffffffffffffffffffffffffffffff161415610f0d576040517f08c379a0000000000000000000000000000000000000000000000000000000008152600401610f04906123a8565b60405180910390fd5b6000610f176109bf565b90506000610f248561164e565b90506000610f318561164e565b9050610f4283600089858589611457565b8460008088815260200190815260200160002060008973ffffffffffffffffffffffffffffffffffffffff1673ffffffffffffffffffffffffffffffffffffffff1681526020019081526020016000206000828254610fa1919061254b565b925050819055508673ffffffffffffffffffffffffffffffffffffffff16600073ffffffffffffffffffffffffffffffffffffffff168473ffffffffffffffffffffffffffffffffffffffff167fc3d58168c5ae7397731d063d5bbf3d657854427343f4c083240f7aacaa2d0f62898960405161101f929190612403565b60405180910390a46110368360008985858961145f565b61104583600089898989611714565b50505050505050565b8173ffffffffffffffffffffffffffffffffffffffff168373ffffffffffffffffffffffffffffffffffffffff1614156110bd576040517f08c379a00000000000000000000000000000000000000000000000000000000081526004016110b490612348565b60405180910390fd5b80600160008573ffffffffffffffffffffffffffffffffffffffff1673ffffffffffffffffffffffffffffffffffffffff16815260200190815260200160002060008473ffffffffffffffffffffffffffffffffffffffff1673ffffffffffffffffffffffffffffffffffffffff16815260200190815260200160002060006101000a81548160ff0219169083151502179055508173ffffffffffffffffffffffffffffffffffffffff168373ffffffffffffffffffffffffffffffffffffffff167f17307eab39ab6107e8899845ad3d59bd9653f200f220920489ca2b5937696c31836040516111ae919061222b565b60405180910390a3505050565b600073ffffffffffffffffffffffffffffffffffffffff168473ffffffffffffffffffffffffffffffffffffffff16141561122b576040517f08c379a0000000000000000000000000000000000000000000000000000000008152600401611222906122e8565b60405180910390fd5b60006112356109bf565b905060006112428561164e565b9050600061124f8561164e565b905061125f838989858589611457565b600080600088815260200190815260200160002060008a73ffffffffffffffffffffffffffffffffffffffff1673ffffffffffffffffffffffffffffffffffffffff168152602001908152602001600020549050858110156112f6576040517f08c379a00000000000000000000000000000000000000000000000000000000081526004016112ed90612308565b60405180910390fd5b85810360008089815260200190815260200160002060008b73ffffffffffffffffffffffffffffffffffffffff1673ffffffffffffffffffffffffffffffffffffffff168152602001908152602001600020819055508560008089815260200190815260200160002060008a73ffffffffffffffffffffffffffffffffffffffff1673ffffffffffffffffffffffffffffffffffffffff16815260200190815260200160002060008282546113ab919061254b565b925050819055508773ffffffffffffffffffffffffffffffffffffffff168973ffffffffffffffffffffffffffffffffffffffff168573ffffffffffffffffffffffffffffffffffffffff167fc3d58168c5ae7397731d063d5bbf3d657854427343f4c083240f7aacaa2d0f628a8a604051611428929190612403565b60405180910390a461143e848a8a86868a61145f565b61144c848a8a8a8a8a611714565b505050505050505050565b505050505050565b505050505050565b6114868473ffffffffffffffffffffffffffffffffffffffff166118fb565b15611646578373ffffffffffffffffffffffffffffffffffffffff1663bc197c8187878686866040518663ffffffff1660e01b81526004016114cc959493929190612110565b602060405180830381600087803b1580156114e657600080fd5b505af192505050801561151757506040513d601f19601f820116820180604052508101906115149190611ddb565b60015b6115bd57611523612790565b806308c379a014156115805750611538612b5e565b806115435750611582565b806040517f08c379a00000000000000000000000000000000000000000000000000000000081526004016115779190612246565b60405180910390fd5b505b6040517f08c379a00000000000000000000000000000000000000000000000000000000081526004016115b4906123c8565b60405180910390fd5b63bc197c8160e01b7bffffffffffffffffffffffffffffffffffffffffffffffffffffffff1916817bffffffffffffffffffffffffffffffffffffffffffffffffffffffff191614611644576040517f08c379a000000000000000000000000000000000000000000000000000000000815260040161163b90612268565b60405180910390fd5b505b505050505050565b60606000600167ffffffffffffffff811115611693577f4e487b7100000000000000000000000000000000000000000000000000000000600052604160045260246000fd5b6040519080825280602002602001820160405280156116c15781602001602082028036833780820191505090505b50905082816000815181106116ff577f4e487b7100000000000000000000000000000000000000000000000000000000600052603260045260246000fd5b60200260200101818152505080915050919050565b6117338473ffffffffffffffffffffffffffffffffffffffff166118fb565b156118f3578373ffffffffffffffffffffffffffffffffffffffff1663f23a6e6187878686866040518663ffffffff1660e01b8152600401611779959493929190612178565b602060405180830381600087803b15801561179357600080fd5b505af19250505080156117c457506040513d601f19601f820116820180604052508101906117c19190611ddb565b60015b61186a576117d0612790565b806308c379a0141561182d57506117e5612b5e565b806117f0575061182f565b806040517f08c379a00000000000000000000000000000000000000000000000000000000081526004016118249190612246565b60405180910390fd5b505b6040517f08c379a0000000000000000000000000000000000000000000000000000000008152600401611861906123c8565b60405180910390fd5b63f23a6e6160e01b7bffffffffffffffffffffffffffffffffffffffffffffffffffffffff1916817bffffffffffffffffffffffffffffffffffffffffffffffffffffffff1916146118f1576040517f08c379a00000000000000000000000000000000000000000000000000000000081526004016118e890612268565b60405180910390fd5b505b505050505050565b6000808273ffffffffffffffffffffffffffffffffffffffff163b119050919050565b600061193161192c84612451565b61242c565b9050808382526020820190508285602086028201111561195057600080fd5b60005b8581101561198057816119668882611a34565b845260208401935060208301925050600181019050611953565b5050509392505050565b600061199d6119988461247d565b61242c565b905080838252602082019050828560208602820111156119bc57600080fd5b60005b858110156119ec57816119d28882611b06565b8452602084019350602083019250506001810190506119bf565b5050509392505050565b6000611a09611a04846124a9565b61242c565b905082815260208101848484011115611a2157600080fd5b611a2c848285612615565b509392505050565b600081359050611a4381612bf4565b92915050565b600082601f830112611a5a57600080fd5b8135611a6a84826020860161191e565b91505092915050565b600082601f830112611a8457600080fd5b8135611a9484826020860161198a565b91505092915050565b600081359050611aac81612c0b565b92915050565b600081359050611ac181612c22565b92915050565b600081519050611ad681612c22565b92915050565b600082601f830112611aed57600080fd5b8135611afd8482602086016119f6565b91505092915050565b600081359050611b1581612c39565b92915050565b600060208284031215611b2d57600080fd5b6000611b3b84828501611a34565b91505092915050565b60008060408385031215611b5757600080fd5b6000611b6585828601611a34565b9250506020611b7685828601611a34565b9150509250929050565b600080600080600060a08688031215611b9857600080fd5b6000611ba688828901611a34565b9550506020611bb788828901611a34565b945050604086013567ffffffffffffffff811115611bd457600080fd5b611be088828901611a73565b935050606086013567ffffffffffffffff811115611bfd57600080fd5b611c0988828901611a73565b925050608086013567ffffffffffffffff811115611c2657600080fd5b611c3288828901611adc565b9150509295509295909350565b600080600080600060a08688031215611c5757600080fd5b6000611c6588828901611a34565b9550506020611c7688828901611a34565b9450506040611c8788828901611b06565b9350506060611c9888828901611b06565b925050608086013567ffffffffffffffff811115611cb557600080fd5b611cc188828901611adc565b9150509295509295909350565b60008060408385031215611ce157600080fd5b6000611cef85828601611a34565b9250506020611d0085828601611a9d565b9150509250929050565b60008060408385031215611d1d57600080fd5b6000611d2b85828601611a34565b9250506020611d3c85828601611b06565b9150509250929050565b60008060408385031215611d5957600080fd5b600083013567ffffffffffffffff811115611d7357600080fd5b611d7f85828601611a49565b925050602083013567ffffffffffffffff811115611d9c57600080fd5b611da885828601611a73565b9150509250929050565b600060208284031215611dc457600080fd5b6000611dd284828501611ab2565b91505092915050565b600060208284031215611ded57600080fd5b6000611dfb84828501611ac7565b91505092915050565b600060208284031215611e1657600080fd5b6000611e2484828501611b06565b91505092915050565b6000611e3983836120d7565b60208301905092915050565b611e4e816125a1565b82525050565b6000611e5f826124ea565b611e698185612518565b9350611e74836124da565b8060005b83811015611ea5578151611e8c8882611e2d565b9750611e978361250b565b925050600181019050611e78565b5085935050505092915050565b611ebb816125b3565b82525050565b6000611ecc826124f5565b611ed68185612529565b9350611ee6818560208601612624565b611eef816127b2565b840191505092915050565b6000611f0582612500565b611f0f818561253a565b9350611f1f818560208601612624565b611f28816127b2565b840191505092915050565b6000611f4060288361253a565b9150611f4b826127d0565b604082019050919050565b6000611f6360268361253a565b9150611f6e8261281f565b604082019050919050565b6000611f86602a8361253a565b9150611f918261286e565b604082019050919050565b6000611fa9602e8361253a565b9150611fb4826128bd565b604082019050919050565b6000611fcc60258361253a565b9150611fd78261290c565b604082019050919050565b6000611fef602a8361253a565b9150611ffa8261295b565b604082019050919050565b600061201260208361253a565b915061201d826129aa565b602082019050919050565b600061203560298361253a565b9150612040826129d3565b604082019050919050565b600061205860298361253a565b915061206382612a22565b604082019050919050565b600061207b60288361253a565b915061208682612a71565b604082019050919050565b600061209e60218361253a565b91506120a982612ac0565b604082019050919050565b60006120c160348361253a565b91506120cc82612b0f565b604082019050919050565b6120e08161260b565b82525050565b6120ef8161260b565b82525050565b600060208201905061210a6000830184611e45565b92915050565b600060a0820190506121256000830188611e45565b6121326020830187611e45565b81810360408301526121448186611e54565b905081810360608301526121588185611e54565b9050818103608083015261216c8184611ec1565b90509695505050505050565b600060a08201905061218d6000830188611e45565b61219a6020830187611e45565b6121a760408301866120e6565b6121b460608301856120e6565b81810360808301526121c68184611ec1565b90509695505050505050565b600060208201905081810360008301526121ec8184611e54565b905092915050565b6000604082019050818103600083015261220e8185611e54565b905081810360208301526122228184611e54565b90509392505050565b60006020820190506122406000830184611eb2565b92915050565b600060208201905081810360008301526122608184611efa565b905092915050565b6000602082019050818103600083015261228181611f33565b9050919050565b600060208201905081810360008301526122a181611f56565b9050919050565b600060208201905081810360008301526122c181611f79565b9050919050565b600060208201905081810360008301526122e181611f9c565b9050919050565b6000602082019050818103600083015261230181611fbf565b9050919050565b6000602082019050818103600083015261232181611fe2565b9050919050565b6000602082019050818103600083015261234181612005565b9050919050565b6000602082019050818103600083015261236181612028565b9050919050565b600060208201905081810360008301526123818161204b565b9050919050565b600060208201905081810360008301526123a18161206e565b9050919050565b600060208201905081810360008301526123c181612091565b9050919050565b600060208201905081810360008301526123e1816120b4565b9050919050565b60006020820190506123fd60008301846120e6565b92915050565b600060408201905061241860008301856120e6565b61242560208301846120e6565b9392505050565b6000612436612447565b90506124428282612689565b919050565b6000604051905090565b600067ffffffffffffffff82111561246c5761246b612761565b5b602082029050602081019050919050565b600067ffffffffffffffff82111561249857612497612761565b5b602082029050602081019050919050565b600067ffffffffffffffff8211156124c4576124c3612761565b5b6124cd826127b2565b9050602081019050919050565b6000819050602082019050919050565b600081519050919050565b600081519050919050565b600081519050919050565b6000602082019050919050565b600082825260208201905092915050565b600082825260208201905092915050565b600082825260208201905092915050565b60006125568261260b565b91506125618361260b565b9250827fffffffffffffffffffffffffffffffffffffffffffffffffffffffffffffffff0382111561259657612595612703565b5b828201905092915050565b60006125ac826125eb565b9050919050565b60008115159050919050565b60007fffffffff0000000000000000000000000000000000000000000000000000000082169050919050565b600073ffffffffffffffffffffffffffffffffffffffff82169050919050565b6000819050919050565b82818337600083830152505050565b60005b83811015612642578082015181840152602081019050612627565b83811115612651576000848401525b50505050565b6000600282049050600182168061266f57607f821691505b6020821081141561268357612682612732565b5b50919050565b612692826127b2565b810181811067ffffffffffffffff821117156126b1576126b0612761565b5b80604052505050565b60006126c58261260b565b91507fffffffffffffffffffffffffffffffffffffffffffffffffffffffffffffffff8214156126f8576126f7612703565b5b600182019050919050565b7f4e487b7100000000000000000000000000000000000000000000000000000000600052601160045260246000fd5b7f4e487b7100000000000000000000000000000000000000000000000000000000600052602260045260246000fd5b7f4e487b7100000000000000000000000000000000000000000000000000000000600052604160045260246000fd5b600060033d11156127af5760046000803e6127ac6000516127c3565b90505b90565b6000601f19601f8301169050919050565b60008160e01c9050919050565b7f455243313135353a204552433131353552656365697665722072656a6563746560008201527f6420746f6b656e73000000000000000000000000000000000000000000000000602082015250565b7f4f776e61626c653a206e6577206f776e657220697320746865207a65726f206160008201527f6464726573730000000000000000000000000000000000000000000000000000602082015250565b7f455243313135353a2061646472657373207a65726f206973206e6f742061207660008201527f616c6964206f776e657200000000000000000000000000000000000000000000602082015250565b7f455243313135353a2063616c6c6572206973206e6f7420746f6b656e206f776e60008201527f6572206f7220617070726f766564000000000000000000000000000000000000602082015250565b7f455243313135353a207472616e7366657220746f20746865207a65726f20616460008201527f6472657373000000000000000000000000000000000000000000000000000000602082015250565b7f455243313135353a20696e73756666696369656e742062616c616e636520666f60008201527f72207472616e7366657200000000000000000000000000000000000000000000602082015250565b7f4f776e61626c653a2063616c6c6572206973206e6f7420746865206f776e6572600082015250565b7f455243313135353a2073657474696e6720617070726f76616c2073746174757360008201527f20666f722073656c660000000000000000000000000000000000000000000000602082015250565b7f455243313135353a206163636f756e747320616e6420696473206c656e67746860008201527f206d69736d617463680000000000000000000000000000000000000000000000602082015250565b7f455243313135353a2069647320616e6420616d6f756e7473206c656e6774682060008201527f6d69736d61746368000000000000000000000000000000000000000000000000602082015250565b7f455243313135353a206d696e7420746f20746865207a65726f2061646472657360008201527f7300000000000000000000000000000000000000000000000000000000000000602082015250565b7f455243313135353a207472616e7366657220746f206e6f6e2d4552433131353560008201527f526563656976657220696d706c656d656e746572000000000000000000000000602082015250565b600060443d1015612b6e57612bf1565b612b76612447565b60043d036004823e80513d602482011167ffffffffffffffff82111715612b9e575050612bf1565b808201805167ffffffffffffffff811115612bbc5750505050612bf1565b80602083010160043d038501811115612bd9575050505050612bf1565b612be882602001850186612689565b82955050505050505b90565b612bfd816125a1565b8114612c0857600080fd5b50565b612c14816125b3565b8114612c1f57600080fd5b50565b612c2b816125bf565b8114612c3657600080fd5b50565b612c428161260b565b8114612c4d57600080fd5b5056fea2646970667358221220bd67e75bd939bf0d84f6e171d401fe8f1aa839b0ebe341314d1ece43fe6541a164736f6c63430008040033",
  "linkReferences": {},
  "deployedLinkReferences": {}
}